{
  "_format": "hh-sol-artifact-1",
  "contractName": "DroppioSBT",
  "sourceName": "contracts/DroppioSBT.sol",
  "abi": [
    {
      "inputs": [
        {
          "internalType": "address",
          "name": "_droppioAddress",
          "type": "address"
        },
        {
          "internalType": "string",
          "name": "_baseURI",
          "type": "string"
        }
      ],
      "stateMutability": "nonpayable",
      "type": "constructor"
    },
    {
      "anonymous": false,
      "inputs": [
        {
          "indexed": true,
          "internalType": "address",
          "name": "owner",
          "type": "address"
        },
        {
          "indexed": true,
          "internalType": "address",
          "name": "approved",
          "type": "address"
        },
        {
          "indexed": true,
          "internalType": "uint256",
          "name": "tokenId",
          "type": "uint256"
        }
      ],
      "name": "Approval",
      "type": "event"
    },
    {
      "anonymous": false,
      "inputs": [
        {
          "indexed": true,
          "internalType": "address",
          "name": "owner",
          "type": "address"
        },
        {
          "indexed": true,
          "internalType": "address",
          "name": "operator",
          "type": "address"
        },
        {
          "indexed": false,
          "internalType": "bool",
          "name": "approved",
          "type": "bool"
        }
      ],
      "name": "ApprovalForAll",
      "type": "event"
    },
    {
      "anonymous": false,
      "inputs": [
        {
          "indexed": false,
          "internalType": "uint256",
          "name": "_fromTokenId",
          "type": "uint256"
        },
        {
          "indexed": false,
          "internalType": "uint256",
          "name": "_toTokenId",
          "type": "uint256"
        }
      ],
      "name": "BatchMetadataUpdate",
      "type": "event"
    },
    {
      "anonymous": false,
      "inputs": [
        {
          "indexed": false,
          "internalType": "uint256",
          "name": "_tokenId",
          "type": "uint256"
        }
      ],
      "name": "MetadataUpdate",
      "type": "event"
    },
    {
      "anonymous": false,
      "inputs": [
        {
          "indexed": true,
          "internalType": "address",
          "name": "previousOwner",
          "type": "address"
        },
        {
          "indexed": true,
          "internalType": "address",
          "name": "newOwner",
          "type": "address"
        }
      ],
      "name": "OwnershipTransferred",
      "type": "event"
    },
    {
      "anonymous": false,
      "inputs": [
        {
          "indexed": true,
          "internalType": "address",
          "name": "from",
          "type": "address"
        },
        {
          "indexed": true,
          "internalType": "address",
          "name": "to",
          "type": "address"
        },
        {
          "indexed": true,
          "internalType": "uint256",
          "name": "tokenId",
          "type": "uint256"
        }
      ],
      "name": "Transfer",
      "type": "event"
    },
    {
      "inputs": [
        {
          "internalType": "address",
          "name": "to",
          "type": "address"
        },
        {
          "internalType": "uint256",
          "name": "tokenId",
          "type": "uint256"
        }
      ],
      "name": "approve",
      "outputs": [],
      "stateMutability": "nonpayable",
      "type": "function"
    },
    {
      "inputs": [
        {
          "internalType": "address",
          "name": "owner",
          "type": "address"
        }
      ],
      "name": "balanceOf",
      "outputs": [
        {
          "internalType": "uint256",
          "name": "",
          "type": "uint256"
        }
      ],
      "stateMutability": "view",
      "type": "function"
    },
    {
      "inputs": [],
      "name": "baseURI",
      "outputs": [
        {
          "internalType": "string",
          "name": "",
          "type": "string"
        }
      ],
      "stateMutability": "view",
      "type": "function"
    },
    {
      "inputs": [],
      "name": "droppioContract",
      "outputs": [
        {
          "internalType": "contract IDroppio",
          "name": "",
          "type": "address"
        }
      ],
      "stateMutability": "view",
      "type": "function"
    },
    {
      "inputs": [
        {
          "internalType": "uint256",
          "name": "tokenId",
          "type": "uint256"
        }
      ],
      "name": "getApproved",
      "outputs": [
        {
          "internalType": "address",
          "name": "",
          "type": "address"
        }
      ],
      "stateMutability": "view",
      "type": "function"
    },
    {
      "inputs": [
        {
          "internalType": "address",
          "name": "",
          "type": "address"
        },
        {
          "internalType": "string",
          "name": "",
          "type": "string"
        }
      ],
      "name": "hasMinted",
      "outputs": [
        {
          "internalType": "bool",
          "name": "",
          "type": "bool"
        }
      ],
      "stateMutability": "view",
      "type": "function"
    },
    {
      "inputs": [
        {
          "internalType": "address",
          "name": "owner",
          "type": "address"
        },
        {
          "internalType": "address",
          "name": "operator",
          "type": "address"
        }
      ],
      "name": "isApprovedForAll",
      "outputs": [
        {
          "internalType": "bool",
          "name": "",
          "type": "bool"
        }
      ],
      "stateMutability": "view",
      "type": "function"
    },
    {
      "inputs": [
        {
          "internalType": "string",
          "name": "badgeLevel",
          "type": "string"
        }
      ],
      "name": "mintBadge",
      "outputs": [],
      "stateMutability": "nonpayable",
      "type": "function"
    },
    {
      "inputs": [],
      "name": "name",
      "outputs": [
        {
          "internalType": "string",
          "name": "",
          "type": "string"
        }
      ],
      "stateMutability": "view",
      "type": "function"
    },
    {
      "inputs": [],
      "name": "owner",
      "outputs": [
        {
          "internalType": "address",
          "name": "",
          "type": "address"
        }
      ],
      "stateMutability": "view",
      "type": "function"
    },
    {
      "inputs": [
        {
          "internalType": "uint256",
          "name": "tokenId",
          "type": "uint256"
        }
      ],
      "name": "ownerOf",
      "outputs": [
        {
          "internalType": "address",
          "name": "",
          "type": "address"
        }
      ],
      "stateMutability": "view",
      "type": "function"
    },
    {
      "inputs": [],
      "name": "renounceOwnership",
      "outputs": [],
      "stateMutability": "nonpayable",
      "type": "function"
    },
    {
      "inputs": [
        {
          "internalType": "address",
          "name": "from",
          "type": "address"
        },
        {
          "internalType": "address",
          "name": "to",
          "type": "address"
        },
        {
          "internalType": "uint256",
          "name": "tokenId",
          "type": "uint256"
        }
      ],
      "name": "safeTransferFrom",
      "outputs": [],
      "stateMutability": "nonpayable",
      "type": "function"
    },
    {
      "inputs": [
        {
          "internalType": "address",
          "name": "from",
          "type": "address"
        },
        {
          "internalType": "address",
          "name": "to",
          "type": "address"
        },
        {
          "internalType": "uint256",
          "name": "tokenId",
          "type": "uint256"
        },
        {
          "internalType": "bytes",
          "name": "_data",
          "type": "bytes"
        }
      ],
      "name": "safeTransferFrom",
      "outputs": [],
      "stateMutability": "nonpayable",
      "type": "function"
    },
    {
      "inputs": [
        {
          "internalType": "address",
          "name": "operator",
          "type": "address"
        },
        {
          "internalType": "bool",
          "name": "approved",
          "type": "bool"
        }
      ],
      "name": "setApprovalForAll",
      "outputs": [],
      "stateMutability": "nonpayable",
      "type": "function"
    },
    {
      "inputs": [
        {
          "internalType": "string",
          "name": "newBaseURI",
          "type": "string"
        }
      ],
      "name": "setBaseURI",
      "outputs": [],
      "stateMutability": "nonpayable",
      "type": "function"
    },
    {
      "inputs": [
        {
          "internalType": "bytes4",
          "name": "interfaceId",
          "type": "bytes4"
        }
      ],
      "name": "supportsInterface",
      "outputs": [
        {
          "internalType": "bool",
          "name": "",
          "type": "bool"
        }
      ],
      "stateMutability": "view",
      "type": "function"
    },
    {
      "inputs": [],
      "name": "symbol",
      "outputs": [
        {
          "internalType": "string",
          "name": "",
          "type": "string"
        }
      ],
      "stateMutability": "view",
      "type": "function"
    },
    {
      "inputs": [],
      "name": "tokenCounter",
      "outputs": [
        {
          "internalType": "uint256",
          "name": "",
          "type": "uint256"
        }
      ],
      "stateMutability": "view",
      "type": "function"
    },
    {
      "inputs": [
        {
          "internalType": "uint256",
          "name": "tokenId",
          "type": "uint256"
        }
      ],
      "name": "tokenURI",
      "outputs": [
        {
          "internalType": "string",
          "name": "",
          "type": "string"
        }
      ],
      "stateMutability": "view",
      "type": "function"
    },
    {
      "inputs": [
        {
          "internalType": "address",
          "name": "from",
          "type": "address"
        },
        {
          "internalType": "address",
          "name": "to",
          "type": "address"
        },
        {
          "internalType": "uint256",
          "name": "tokenId",
          "type": "uint256"
        }
      ],
      "name": "transferFrom",
      "outputs": [],
      "stateMutability": "nonpayable",
      "type": "function"
    },
    {
      "inputs": [
        {
          "internalType": "address",
          "name": "newOwner",
          "type": "address"
        }
      ],
      "name": "transferOwnership",
      "outputs": [],
      "stateMutability": "nonpayable",
      "type": "function"
    }
  ],
  "bytecode": "0x608060405234801561001057600080fd5b50604051613d57380380613d57833981810160405281019061003291906103dd565b6040518060400160405280601581526020017f44726f7070696f536f756c626f756e64426164676500000000000000000000008152506040518060400160405280600481526020017f445342420000000000000000000000000000000000000000000000000000000081525081600090816100ad919061065a565b5080600190816100bd919061065a565b5050506100dc6100d161013c60201b60201c565b61014460201b60201c565b600160088190555081600960006101000a81548173ffffffffffffffffffffffffffffffffffffffff021916908373ffffffffffffffffffffffffffffffffffffffff16021790555080600a9081610134919061065a565b50505061072c565b600033905090565b6000600760009054906101000a900473ffffffffffffffffffffffffffffffffffffffff16905081600760006101000a81548173ffffffffffffffffffffffffffffffffffffffff021916908373ffffffffffffffffffffffffffffffffffffffff1602179055508173ffffffffffffffffffffffffffffffffffffffff168173ffffffffffffffffffffffffffffffffffffffff167f8be0079c531659141344cd1fd0a4f28419497f9722a3daafe3b4186f6b6457e060405160405180910390a35050565b6000604051905090565b600080fd5b600080fd5b600073ffffffffffffffffffffffffffffffffffffffff82169050919050565b60006102498261021e565b9050919050565b6102598161023e565b811461026457600080fd5b50565b60008151905061027681610250565b92915050565b600080fd5b600080fd5b6000601f19601f8301169050919050565b7f4e487b7100000000000000000000000000000000000000000000000000000000600052604160045260246000fd5b6102cf82610286565b810181811067ffffffffffffffff821117156102ee576102ed610297565b5b80604052505050565b600061030161020a565b905061030d82826102c6565b919050565b600067ffffffffffffffff82111561032d5761032c610297565b5b61033682610286565b9050602081019050919050565b60005b83811015610361578082015181840152602081019050610346565b60008484015250505050565b600061038061037b84610312565b6102f7565b90508281526020810184848401111561039c5761039b610281565b5b6103a7848285610343565b509392505050565b600082601f8301126103c4576103c361027c565b5b81516103d484826020860161036d565b91505092915050565b600080604083850312156103f4576103f3610214565b5b600061040285828601610267565b925050602083015167ffffffffffffffff81111561042357610422610219565b5b61042f858286016103af565b9150509250929050565b600081519050919050565b7f4e487b7100000000000000000000000000000000000000000000000000000000600052602260045260246000fd5b6000600282049050600182168061048b57607f821691505b60208210810361049e5761049d610444565b5b50919050565b60008190508160005260206000209050919050565b60006020601f8301049050919050565b600082821b905092915050565b6000600883026105067fffffffffffffffffffffffffffffffffffffffffffffffffffffffffffffffff826104c9565b61051086836104c9565b95508019841693508086168417925050509392505050565b6000819050919050565b6000819050919050565b600061055761055261054d84610528565b610532565b610528565b9050919050565b6000819050919050565b6105718361053c565b61058561057d8261055e565b8484546104d6565b825550505050565b600090565b61059a61058d565b6105a5818484610568565b505050565b5b818110156105c9576105be600082610592565b6001810190506105ab565b5050565b601f82111561060e576105df816104a4565b6105e8846104b9565b810160208510156105f7578190505b61060b610603856104b9565b8301826105aa565b50505b505050565b600082821c905092915050565b600061063160001984600802610613565b1980831691505092915050565b600061064a8383610620565b9150826002028217905092915050565b61066382610439565b67ffffffffffffffff81111561067c5761067b610297565b5b6106868254610473565b6106918282856105cd565b600060209050601f8311600181146106c457600084156106b2578287015190505b6106bc858261063e565b865550610724565b601f1984166106d2866104a4565b60005b828110156106fa578489015182556001820191506020850194506020810190506106d5565b868310156107175784890151610713601f891682610620565b8355505b6001600288020188555050505b505050505050565b61361c8061073b6000396000f3fe608060405234801561001057600080fd5b50600436106101425760003560e01c806370a08231116100b8578063a22cb4651161007c578063a22cb46514610363578063b88d4fde1461037f578063c87b56dd1461039b578063d082e381146103cb578063e985e9c5146103e9578063f2fde38b1461041957610142565b806370a08231146102bd578063715018a6146102ed5780638da5cb5b146102f757806395d89b411461031557806395f5fd1d1461033357610142565b806323b872dd1161010a57806323b872dd146101fd5780632c6fc2281461021957806342842e0e1461023757806355f804b3146102535780636352211e1461026f5780636c0360eb1461029f57610142565b806301ffc9a71461014757806306fdde0314610177578063081812fc14610195578063095ea7b3146101c55780631fe91b39146101e1575b600080fd5b610161600480360381019061015c9190611fef565b610435565b60405161016e9190612037565b60405180910390f35b61017f610496565b60405161018c91906120e2565b60405180910390f35b6101af60048036038101906101aa919061213a565b610528565b6040516101bc91906121a8565b60405180910390f35b6101df60048036038101906101da91906121ef565b61056e565b005b6101fb60048036038101906101f69190612294565b6105a9565b005b610217600480360381019061021291906122e1565b610935565b005b610221610970565b60405161022e9190612393565b60405180910390f35b610251600480360381019061024c91906122e1565b610996565b005b61026d60048036038101906102689190612294565b6109d1565b005b6102896004803603810190610284919061213a565b6109ef565b60405161029691906121a8565b60405180910390f35b6102a7610a75565b6040516102b491906120e2565b60405180910390f35b6102d760048036038101906102d291906123ae565b610b03565b6040516102e491906123ea565b60405180910390f35b6102f5610bba565b005b6102ff610bce565b60405161030c91906121a8565b60405180910390f35b61031d610bf8565b60405161032a91906120e2565b60405180910390f35b61034d60048036038101906103489190612535565b610c8a565b60405161035a9190612037565b60405180910390f35b61037d600480360381019061037891906125bd565b610ccf565b005b6103996004803603810190610394919061269e565b610d0a565b005b6103b560048036038101906103b0919061213a565b610d45565b6040516103c291906120e2565b60405180910390f35b6103d3610e57565b6040516103e091906123ea565b60405180910390f35b61040360048036038101906103fe9190612721565b610e5d565b6040516104109190612037565b60405180910390f35b610433600480360381019061042e91906123ae565b610ef1565b005b6000634906490660e01b7bffffffffffffffffffffffffffffffffffffffffffffffffffffffff1916827bffffffffffffffffffffffffffffffffffffffffffffffffffffffff1916148061048f575061048e82610f74565b5b9050919050565b6060600080546104a590612790565b80601f01602080910402602001604051908101604052809291908181526020018280546104d190612790565b801561051e5780601f106104f35761010080835404028352916020019161051e565b820191906000526020600020905b81548152906001019060200180831161050157829003601f168201915b5050505050905090565b600061053382611056565b6004600083815260200190815260200160002060009054906101000a900473ffffffffffffffffffffffffffffffffffffffff169050919050565b6040517f08c379a00000000000000000000000000000000000000000000000000000000081526004016105a090612833565b60405180910390fd5b6105f682828080601f016020809104026020016040519081016040528093929190818152602001838380828437600081840152601f19601f820116905080830192505050505050506110a1565b610635576040517f08c379a000000000000000000000000000000000000000000000000000000000815260040161062c9061289f565b60405180910390fd5b600b60003373ffffffffffffffffffffffffffffffffffffffff1673ffffffffffffffffffffffffffffffffffffffff16815260200190815260200160002082826040516106849291906128ef565b908152602001604051809103902060009054906101000a900460ff16156106e0576040517f08c379a00000000000000000000000000000000000000000000000000000000081526004016106d790612954565b60405180910390fd5b6000600960009054906101000a900473ffffffffffffffffffffffffffffffffffffffff1673ffffffffffffffffffffffffffffffffffffffff16637a454fbd336040518263ffffffff1660e01b815260040161073d91906121a8565b600060405180830381865afa15801561075a573d6000803e3d6000fd5b505050506040513d6000823e3d601f19601f8201168201806040525081019061078391906129e4565b90506107d383838080601f016020809104026020016040519081016040528093929190818152602001838380828437600081840152601f19601f820116905080830192505050505050508261114c565b610812576040517f08c379a000000000000000000000000000000000000000000000000000000000815260040161080990612a79565b60405180910390fd5b600060085490506108233382611327565b6000600a61087486868080601f016020809104026020016040519081016040528093929190818152602001838380828437600081840152601f19601f82011690508083019250505050505050611345565b604051602001610885929190612b62565b60405160208183030381529060405290506108a08282611525565b6001600b60003373ffffffffffffffffffffffffffffffffffffffff1673ffffffffffffffffffffffffffffffffffffffff16815260200190815260200160002086866040516108f19291906128ef565b908152602001604051809103902060006101000a81548160ff0219169083151502179055506008600081548092919061092990612bb5565b91905055505050505050565b6040517f08c379a000000000000000000000000000000000000000000000000000000000815260040161096790612c6f565b60405180910390fd5b600960009054906101000a900473ffffffffffffffffffffffffffffffffffffffff1681565b6040517f08c379a00000000000000000000000000000000000000000000000000000000081526004016109c890612c6f565b60405180910390fd5b6109d96115c9565b8181600a91826109ea929190612e27565b505050565b6000806109fb83611647565b9050600073ffffffffffffffffffffffffffffffffffffffff168173ffffffffffffffffffffffffffffffffffffffff1603610a6c576040517f08c379a0000000000000000000000000000000000000000000000000000000008152600401610a6390612f43565b60405180910390fd5b80915050919050565b600a8054610a8290612790565b80601f0160208091040260200160405190810160405280929190818152602001828054610aae90612790565b8015610afb5780601f10610ad057610100808354040283529160200191610afb565b820191906000526020600020905b815481529060010190602001808311610ade57829003601f168201915b505050505081565b60008073ffffffffffffffffffffffffffffffffffffffff168273ffffffffffffffffffffffffffffffffffffffff1603610b73576040517f08c379a0000000000000000000000000000000000000000000000000000000008152600401610b6a90612fd5565b60405180910390fd5b600360008373ffffffffffffffffffffffffffffffffffffffff1673ffffffffffffffffffffffffffffffffffffffff168152602001908152602001600020549050919050565b610bc26115c9565b610bcc6000611684565b565b6000600760009054906101000a900473ffffffffffffffffffffffffffffffffffffffff16905090565b606060018054610c0790612790565b80601f0160208091040260200160405190810160405280929190818152602001828054610c3390612790565b8015610c805780601f10610c5557610100808354040283529160200191610c80565b820191906000526020600020905b815481529060010190602001808311610c6357829003601f168201915b5050505050905090565b600b602052816000526040600020818051602081018201805184825260208301602085012081835280955050505050506000915091509054906101000a900460ff1681565b6040517f08c379a0000000000000000000000000000000000000000000000000000000008152600401610d0190612833565b60405180910390fd5b6040517f08c379a0000000000000000000000000000000000000000000000000000000008152600401610d3c90612c6f565b60405180910390fd5b6060610d5082611056565b6000600660008481526020019081526020016000208054610d7090612790565b80601f0160208091040260200160405190810160405280929190818152602001828054610d9c90612790565b8015610de95780601f10610dbe57610100808354040283529160200191610de9565b820191906000526020600020905b815481529060010190602001808311610dcc57829003601f168201915b505050505090506000610dfa61174a565b90506000815103610e0f578192505050610e52565b600082511115610e44578082604051602001610e2c929190612ff5565b60405160208183030381529060405292505050610e52565b610e4d84611761565b925050505b919050565b60085481565b6000600560008473ffffffffffffffffffffffffffffffffffffffff1673ffffffffffffffffffffffffffffffffffffffff16815260200190815260200160002060008373ffffffffffffffffffffffffffffffffffffffff1673ffffffffffffffffffffffffffffffffffffffff16815260200190815260200160002060009054906101000a900460ff16905092915050565b610ef96115c9565b600073ffffffffffffffffffffffffffffffffffffffff168173ffffffffffffffffffffffffffffffffffffffff1603610f68576040517f08c379a0000000000000000000000000000000000000000000000000000000008152600401610f5f9061308b565b60405180910390fd5b610f7181611684565b50565b60007f80ac58cd000000000000000000000000000000000000000000000000000000007bffffffffffffffffffffffffffffffffffffffffffffffffffffffff1916827bffffffffffffffffffffffffffffffffffffffffffffffffffffffff1916148061103f57507f5b5e139f000000000000000000000000000000000000000000000000000000007bffffffffffffffffffffffffffffffffffffffffffffffffffffffff1916827bffffffffffffffffffffffffffffffffffffffffffffffffffffffff1916145b8061104f575061104e826117c9565b5b9050919050565b61105f81611833565b61109e576040517f08c379a000000000000000000000000000000000000000000000000000000000815260040161109590612f43565b60405180910390fd5b50565b600080826040516020016110b591906130ab565b6040516020818303038152906040528051906020012090507f55b63f4ecc61e243fccd5cf43132ed12d9e8c2601ff424f51bbd368bd125b45f81148061111a57507ff941acc7a280b509da22820f4cfa02d757f6c3c7f9a8aa70c32c18152fa9a48881145b8061114457507fa827b848d338b362a9edc3f5d9143a504828207dd0d1d6515b2b3968154d59b081145b915050919050565b6000808360405160200161116091906130ab565b60405160208183030381529060405280519060200120905060008360405160200161118b91906130ab565b6040516020818303038152906040528051906020012090507f55b63f4ecc61e243fccd5cf43132ed12d9e8c2601ff424f51bbd368bd125b45f820361124a577f55b63f4ecc61e243fccd5cf43132ed12d9e8c2601ff424f51bbd368bd125b45f81148061121757507ff941acc7a280b509da22820f4cfa02d757f6c3c7f9a8aa70c32c18152fa9a48881145b8061124157507fa827b848d338b362a9edc3f5d9143a504828207dd0d1d6515b2b3968154d59b081145b92505050611321565b7ff941acc7a280b509da22820f4cfa02d757f6c3c7f9a8aa70c32c18152fa9a48882036112c7577ff941acc7a280b509da22820f4cfa02d757f6c3c7f9a8aa70c32c18152fa9a4888114806112be57507fa827b848d338b362a9edc3f5d9143a504828207dd0d1d6515b2b3968154d59b081145b92505050611321565b7fa827b848d338b362a9edc3f5d9143a504828207dd0d1d6515b2b3968154d59b0820361131a577fa827b848d338b362a9edc3f5d9143a504828207dd0d1d6515b2b3968154d59b0811492505050611321565b6000925050505b92915050565b611341828260405180602001604052806000815250611874565b5050565b60607f55b63f4ecc61e243fccd5cf43132ed12d9e8c2601ff424f51bbd368bd125b45f8260405160200161137991906130ab565b60405160208183030381529060405280519060200120036113d1576040518060400160405280601681526020017f64726f7070696f2d62726f6e7a655342542e6a736f6e000000000000000000008152509050611520565b7ff941acc7a280b509da22820f4cfa02d757f6c3c7f9a8aa70c32c18152fa9a4888260405160200161140391906130ab565b604051602081830303815290604052805190602001200361145b576040518060400160405280601681526020017f64726f7070696f2d73696c7665725342542e6a736f6e000000000000000000008152509050611520565b7fa827b848d338b362a9edc3f5d9143a504828207dd0d1d6515b2b3968154d59b08260405160200161148d91906130ab565b60405160208183030381529060405280519060200120036114e5576040518060400160405280601481526020017f64726f7070696f2d676f6c645342542e6a736f6e0000000000000000000000008152509050611520565b6040517f08c379a00000000000000000000000000000000000000000000000000000000081526004016115179061310e565b60405180910390fd5b919050565b61152e82611833565b61156d576040517f08c379a0000000000000000000000000000000000000000000000000000000008152600401611564906131a0565b60405180910390fd5b8060066000848152602001908152602001600020908161158d91906131c0565b507ff8e1a15aba9398e019f0b49df1a4fde98ee17ae345cb5f6b5e2c27f5033e8ce7826040516115bd91906123ea565b60405180910390a15050565b6115d16118cf565b73ffffffffffffffffffffffffffffffffffffffff166115ef610bce565b73ffffffffffffffffffffffffffffffffffffffff1614611645576040517f08c379a000000000000000000000000000000000000000000000000000000000815260040161163c906132de565b60405180910390fd5b565b60006002600083815260200190815260200160002060009054906101000a900473ffffffffffffffffffffffffffffffffffffffff169050919050565b6000600760009054906101000a900473ffffffffffffffffffffffffffffffffffffffff16905081600760006101000a81548173ffffffffffffffffffffffffffffffffffffffff021916908373ffffffffffffffffffffffffffffffffffffffff1602179055508173ffffffffffffffffffffffffffffffffffffffff168173ffffffffffffffffffffffffffffffffffffffff167f8be0079c531659141344cd1fd0a4f28419497f9722a3daafe3b4186f6b6457e060405160405180910390a35050565b606060405180602001604052806000815250905090565b606061176c82611056565b600061177661174a565b9050600081511161179657604051806020016040528060008152506117c1565b806117a0846118d7565b6040516020016117b1929190612ff5565b6040516020818303038152906040525b915050919050565b60007f01ffc9a7000000000000000000000000000000000000000000000000000000007bffffffffffffffffffffffffffffffffffffffffffffffffffffffff1916827bffffffffffffffffffffffffffffffffffffffffffffffffffffffff1916149050919050565b60008073ffffffffffffffffffffffffffffffffffffffff1661185583611647565b73ffffffffffffffffffffffffffffffffffffffff1614159050919050565b61187e83836119a5565b61188b6000848484611bc2565b6118ca576040517f08c379a00000000000000000000000000000000000000000000000000000000081526004016118c190613370565b60405180910390fd5b505050565b600033905090565b6060600060016118e684611d49565b01905060008167ffffffffffffffff8111156119055761190461240a565b5b6040519080825280601f01601f1916602001820160405280156119375781602001600182028036833780820191505090505b509050600082602001820190505b60011561199a578080600190039150507f3031323334353637383961626364656600000000000000000000000000000000600a86061a8153600a858161198e5761198d613390565b5b04945060008503611945575b819350505050919050565b600073ffffffffffffffffffffffffffffffffffffffff168273ffffffffffffffffffffffffffffffffffffffff1603611a14576040517f08c379a0000000000000000000000000000000000000000000000000000000008152600401611a0b9061340b565b60405180910390fd5b611a1d81611833565b15611a5d576040517f08c379a0000000000000000000000000000000000000000000000000000000008152600401611a5490613477565b60405180910390fd5b611a6b600083836001611e9c565b611a7481611833565b15611ab4576040517f08c379a0000000000000000000000000000000000000000000000000000000008152600401611aab90613477565b60405180910390fd5b6001600360008473ffffffffffffffffffffffffffffffffffffffff1673ffffffffffffffffffffffffffffffffffffffff16815260200190815260200160002060008282540192505081905550816002600083815260200190815260200160002060006101000a81548173ffffffffffffffffffffffffffffffffffffffff021916908373ffffffffffffffffffffffffffffffffffffffff160217905550808273ffffffffffffffffffffffffffffffffffffffff16600073ffffffffffffffffffffffffffffffffffffffff167fddf252ad1be2c89b69c2b068fc378daa952ba7f163c4a11628f55a4df523b3ef60405160405180910390a4611bbe600083836001611f54565b5050565b6000611be38473ffffffffffffffffffffffffffffffffffffffff16611f5a565b15611d3c578373ffffffffffffffffffffffffffffffffffffffff1663150b7a02611c0c6118cf565b8786866040518563ffffffff1660e01b8152600401611c2e94939291906134ec565b6020604051808303816000875af1925050508015611c6a57506040513d601f19601f82011682018060405250810190611c67919061354d565b60015b611cec573d8060008114611c9a576040519150601f19603f3d011682016040523d82523d6000602084013e611c9f565b606091505b506000815103611ce4576040517f08c379a0000000000000000000000000000000000000000000000000000000008152600401611cdb90613370565b60405180910390fd5b805181602001fd5b63150b7a0260e01b7bffffffffffffffffffffffffffffffffffffffffffffffffffffffff1916817bffffffffffffffffffffffffffffffffffffffffffffffffffffffff191614915050611d41565b600190505b949350505050565b600080600090507a184f03e93ff9f4daa797ed6e38ed64bf6a1f0100000000000000008310611da7577a184f03e93ff9f4daa797ed6e38ed64bf6a1f0100000000000000008381611d9d57611d9c613390565b5b0492506040810190505b6d04ee2d6d415b85acef81000000008310611de4576d04ee2d6d415b85acef81000000008381611dda57611dd9613390565b5b0492506020810190505b662386f26fc100008310611e1357662386f26fc100008381611e0957611e08613390565b5b0492506010810190505b6305f5e1008310611e3c576305f5e1008381611e3257611e31613390565b5b0492506008810190505b6127108310611e61576127108381611e5757611e56613390565b5b0492506004810190505b60648310611e845760648381611e7a57611e79613390565b5b0492506002810190505b600a8310611e93576001810190505b80915050919050565b600073ffffffffffffffffffffffffffffffffffffffff168473ffffffffffffffffffffffffffffffffffffffff161480611f035750600073ffffffffffffffffffffffffffffffffffffffff168373ffffffffffffffffffffffffffffffffffffffff16145b611f42576040517f08c379a0000000000000000000000000000000000000000000000000000000008152600401611f39906135c6565b60405180910390fd5b611f4e84848484611f7d565b50505050565b50505050565b6000808273ffffffffffffffffffffffffffffffffffffffff163b119050919050565b50505050565b6000604051905090565b600080fd5b600080fd5b60007fffffffff0000000000000000000000000000000000000000000000000000000082169050919050565b611fcc81611f97565b8114611fd757600080fd5b50565b600081359050611fe981611fc3565b92915050565b60006020828403121561200557612004611f8d565b5b600061201384828501611fda565b91505092915050565b60008115159050919050565b6120318161201c565b82525050565b600060208201905061204c6000830184612028565b92915050565b600081519050919050565b600082825260208201905092915050565b60005b8381101561208c578082015181840152602081019050612071565b60008484015250505050565b6000601f19601f8301169050919050565b60006120b482612052565b6120be818561205d565b93506120ce81856020860161206e565b6120d781612098565b840191505092915050565b600060208201905081810360008301526120fc81846120a9565b905092915050565b6000819050919050565b61211781612104565b811461212257600080fd5b50565b6000813590506121348161210e565b92915050565b6000602082840312156121505761214f611f8d565b5b600061215e84828501612125565b91505092915050565b600073ffffffffffffffffffffffffffffffffffffffff82169050919050565b600061219282612167565b9050919050565b6121a281612187565b82525050565b60006020820190506121bd6000830184612199565b92915050565b6121cc81612187565b81146121d757600080fd5b50565b6000813590506121e9816121c3565b92915050565b6000806040838503121561220657612205611f8d565b5b6000612214858286016121da565b925050602061222585828601612125565b9150509250929050565b600080fd5b600080fd5b600080fd5b60008083601f8401126122545761225361222f565b5b8235905067ffffffffffffffff81111561227157612270612234565b5b60208301915083600182028301111561228d5761228c612239565b5b9250929050565b600080602083850312156122ab576122aa611f8d565b5b600083013567ffffffffffffffff8111156122c9576122c8611f92565b5b6122d58582860161223e565b92509250509250929050565b6000806000606084860312156122fa576122f9611f8d565b5b6000612308868287016121da565b9350506020612319868287016121da565b925050604061232a86828701612125565b9150509250925092565b6000819050919050565b600061235961235461234f84612167565b612334565b612167565b9050919050565b600061236b8261233e565b9050919050565b600061237d82612360565b9050919050565b61238d81612372565b82525050565b60006020820190506123a86000830184612384565b92915050565b6000602082840312156123c4576123c3611f8d565b5b60006123d2848285016121da565b91505092915050565b6123e481612104565b82525050565b60006020820190506123ff60008301846123db565b92915050565b600080fd5b7f4e487b7100000000000000000000000000000000000000000000000000000000600052604160045260246000fd5b61244282612098565b810181811067ffffffffffffffff821117156124615761246061240a565b5b80604052505050565b6000612474611f83565b90506124808282612439565b919050565b600067ffffffffffffffff8211156124a05761249f61240a565b5b6124a982612098565b9050602081019050919050565b82818337600083830152505050565b60006124d86124d384612485565b61246a565b9050828152602081018484840111156124f4576124f3612405565b5b6124ff8482856124b6565b509392505050565b600082601f83011261251c5761251b61222f565b5b813561252c8482602086016124c5565b91505092915050565b6000806040838503121561254c5761254b611f8d565b5b600061255a858286016121da565b925050602083013567ffffffffffffffff81111561257b5761257a611f92565b5b61258785828601612507565b9150509250929050565b61259a8161201c565b81146125a557600080fd5b50565b6000813590506125b781612591565b92915050565b600080604083850312156125d4576125d3611f8d565b5b60006125e2858286016121da565b92505060206125f3858286016125a8565b9150509250929050565b600067ffffffffffffffff8211156126185761261761240a565b5b61262182612098565b9050602081019050919050565b600061264161263c846125fd565b61246a565b90508281526020810184848401111561265d5761265c612405565b5b6126688482856124b6565b509392505050565b600082601f8301126126855761268461222f565b5b813561269584826020860161262e565b91505092915050565b600080600080608085870312156126b8576126b7611f8d565b5b60006126c6878288016121da565b94505060206126d7878288016121da565b93505060406126e887828801612125565b925050606085013567ffffffffffffffff81111561270957612708611f92565b5b61271587828801612670565b91505092959194509250565b6000806040838503121561273857612737611f8d565b5b6000612746858286016121da565b9250506020612757858286016121da565b9150509250929050565b7f4e487b7100000000000000000000000000000000000000000000000000000000600052602260045260246000fd5b600060028204905060018216806127a857607f821691505b6020821081036127bb576127ba612761565b5b50919050565b7f536f756c626f756e6420746f6b656e732063616e6e6f7420626520617070726f60008201527f7665640000000000000000000000000000000000000000000000000000000000602082015250565b600061281d60238361205d565b9150612828826127c1565b604082019050919050565b6000602082019050818103600083015261284c81612810565b9050919050565b7f496e76616c6964206261646765206c6576656c00000000000000000000000000600082015250565b600061288960138361205d565b915061289482612853565b602082019050919050565b600060208201905081810360008301526128b88161287c565b9050919050565b600081905092915050565b60006128d683856128bf565b93506128e38385846124b6565b82840190509392505050565b60006128fc8284866128ca565b91508190509392505050565b7f416c726561647920636c61696d65640000000000000000000000000000000000600082015250565b600061293e600f8361205d565b915061294982612908565b602082019050919050565b6000602082019050818103600083015261296d81612931565b9050919050565b600061298761298284612485565b61246a565b9050828152602081018484840111156129a3576129a2612405565b5b6129ae84828561206e565b509392505050565b600082601f8301126129cb576129ca61222f565b5b81516129db848260208601612974565b91505092915050565b6000602082840312156129fa576129f9611f8d565b5b600082015167ffffffffffffffff811115612a1857612a17611f92565b5b612a24848285016129b6565b91505092915050565b7f4e6f7420656c696769626c650000000000000000000000000000000000000000600082015250565b6000612a63600c8361205d565b9150612a6e82612a2d565b602082019050919050565b60006020820190508181036000830152612a9281612a56565b9050919050565b60008190508160005260206000209050919050565b60008154612abb81612790565b612ac581866128bf565b94506001821660008114612ae05760018114612af557612b28565b60ff1983168652811515820286019350612b28565b612afe85612a99565b60005b83811015612b2057815481890152600182019150602081019050612b01565b838801955050505b50505092915050565b6000612b3c82612052565b612b4681856128bf565b9350612b5681856020860161206e565b80840191505092915050565b6000612b6e8285612aae565b9150612b7a8284612b31565b91508190509392505050565b7f4e487b7100000000000000000000000000000000000000000000000000000000600052601160045260246000fd5b6000612bc082612104565b91507fffffffffffffffffffffffffffffffffffffffffffffffffffffffffffffffff8203612bf257612bf1612b86565b5b600182019050919050565b7f536f756c626f756e6420746f6b656e732063616e6e6f74206265207472616e7360008201527f6665727265640000000000000000000000000000000000000000000000000000602082015250565b6000612c5960268361205d565b9150612c6482612bfd565b604082019050919050565b60006020820190508181036000830152612c8881612c4c565b9050919050565b600082905092915050565b60006020601f8301049050919050565b600082821b905092915050565b600060088302612ce77fffffffffffffffffffffffffffffffffffffffffffffffffffffffffffffffff82612caa565b612cf18683612caa565b95508019841693508086168417925050509392505050565b6000612d24612d1f612d1a84612104565b612334565b612104565b9050919050565b6000819050919050565b612d3e83612d09565b612d52612d4a82612d2b565b848454612cb7565b825550505050565b600090565b612d67612d5a565b612d72818484612d35565b505050565b5b81811015612d9657612d8b600082612d5f565b600181019050612d78565b5050565b601f821115612ddb57612dac81612a99565b612db584612c9a565b81016020851015612dc4578190505b612dd8612dd085612c9a565b830182612d77565b50505b505050565b600082821c905092915050565b6000612dfe60001984600802612de0565b1980831691505092915050565b6000612e178383612ded565b9150826002028217905092915050565b612e318383612c8f565b67ffffffffffffffff811115612e4a57612e4961240a565b5b612e548254612790565b612e5f828285612d9a565b6000601f831160018114612e8e5760008415612e7c578287013590505b612e868582612e0b565b865550612eee565b601f198416612e9c86612a99565b60005b82811015612ec457848901358255600182019150602085019450602081019050612e9f565b86831015612ee15784890135612edd601f891682612ded565b8355505b6001600288020188555050505b50505050505050565b7f4552433732313a20696e76616c696420746f6b656e2049440000000000000000600082015250565b6000612f2d60188361205d565b9150612f3882612ef7565b602082019050919050565b60006020820190508181036000830152612f5c81612f20565b9050919050565b7f4552433732313a2061646472657373207a65726f206973206e6f74206120766160008201527f6c6964206f776e65720000000000000000000000000000000000000000000000602082015250565b6000612fbf60298361205d565b9150612fca82612f63565b604082019050919050565b60006020820190508181036000830152612fee81612fb2565b9050919050565b60006130018285612b31565b915061300d8284612b31565b91508190509392505050565b7f4f776e61626c653a206e6577206f776e657220697320746865207a65726f206160008201527f6464726573730000000000000000000000000000000000000000000000000000602082015250565b600061307560268361205d565b915061308082613019565b604082019050919050565b600060208201905081810360008301526130a481613068565b9050919050565b60006130b78284612b31565b915081905092915050565b7f496e76616c6964206c6576656c00000000000000000000000000000000000000600082015250565b60006130f8600d8361205d565b9150613103826130c2565b602082019050919050565b60006020820190508181036000830152613127816130eb565b9050919050565b7f45524337323155524953746f726167653a2055524920736574206f66206e6f6e60008201527f6578697374656e7420746f6b656e000000000000000000000000000000000000602082015250565b600061318a602e8361205d565b91506131958261312e565b604082019050919050565b600060208201905081810360008301526131b98161317d565b9050919050565b6131c982612052565b67ffffffffffffffff8111156131e2576131e161240a565b5b6131ec8254612790565b6131f7828285612d9a565b600060209050601f83116001811461322a5760008415613218578287015190505b6132228582612e0b565b86555061328a565b601f19841661323886612a99565b60005b828110156132605784890151825560018201915060208501945060208101905061323b565b8683101561327d5784890151613279601f891682612ded565b8355505b6001600288020188555050505b505050505050565b7f4f776e61626c653a2063616c6c6572206973206e6f7420746865206f776e6572600082015250565b60006132c860208361205d565b91506132d382613292565b602082019050919050565b600060208201905081810360008301526132f7816132bb565b9050919050565b7f4552433732313a207472616e7366657220746f206e6f6e20455243373231526560008201527f63656976657220696d706c656d656e7465720000000000000000000000000000602082015250565b600061335a60328361205d565b9150613365826132fe565b604082019050919050565b600060208201905081810360008301526133898161334d565b9050919050565b7f4e487b7100000000000000000000000000000000000000000000000000000000600052601260045260246000fd5b7f4552433732313a206d696e7420746f20746865207a65726f2061646472657373600082015250565b60006133f560208361205d565b9150613400826133bf565b602082019050919050565b60006020820190508181036000830152613424816133e8565b9050919050565b7f4552433732313a20746f6b656e20616c7265616479206d696e74656400000000600082015250565b6000613461601c8361205d565b915061346c8261342b565b602082019050919050565b6000602082019050818103600083015261349081613454565b9050919050565b600081519050919050565b600082825260208201905092915050565b60006134be82613497565b6134c881856134a2565b93506134d881856020860161206e565b6134e181612098565b840191505092915050565b60006080820190506135016000830187612199565b61350e6020830186612199565b61351b60408301856123db565b818103606083015261352d81846134b3565b905095945050505050565b60008151905061354781611fc3565b92915050565b60006020828403121561356357613562611f8d565b5b600061357184828501613538565b91505092915050565b7f5342547320617265206e6f6e2d7472616e7366657261626c6500000000000000600082015250565b60006135b060198361205d565b91506135bb8261357a565b602082019050919050565b600060208201905081810360008301526135df816135a3565b905091905056fea2646970667358221220884301167989d2f3f5af17f087d064a96589317dbb9129c3a84276644421dfc364736f6c634300081c0033",
  "linkReferences": {},
  "deployedLinkReferences": {}
}