{
  "_format": "hh-sol-artifact-1",
  "contractName": "Droppio",
  "sourceName": "contracts/Droppio.sol",
  "abi": [
    {
      "inputs": [
        {
          "internalType": "address",
          "name": "_idrxAddress",
          "type": "address"
        }
      ],
      "stateMutability": "nonpayable",
      "type": "constructor"
    },
    {
      "anonymous": false,
      "inputs": [
        {
          "indexed": true,
          "internalType": "address",
          "name": "creator",
          "type": "address"
        }
      ],
      "name": "CreatorRegistered",
      "type": "event"
    },
    {
      "anonymous": false,
      "inputs": [
        {
          "indexed": false,
          "internalType": "uint256",
          "name": "newFee",
          "type": "uint256"
        }
      ],
      "name": "CreatorRegistrationFeeChanged",
      "type": "event"
    },
    {
      "anonymous": false,
      "inputs": [
        {
          "indexed": true,
          "internalType": "address",
          "name": "to",
          "type": "address"
        },
        {
          "indexed": false,
          "internalType": "uint256",
          "name": "amount",
          "type": "uint256"
        }
      ],
      "name": "FeeWithdrawn",
      "type": "event"
    },
    {
      "anonymous": false,
      "inputs": [
        {
          "indexed": true,
          "internalType": "address",
          "name": "from",
          "type": "address"
        },
        {
          "indexed": true,
          "internalType": "address",
          "name": "to",
          "type": "address"
        },
        {
          "indexed": false,
          "internalType": "uint256",
          "name": "amount",
          "type": "uint256"
        },
        {
          "indexed": false,
          "internalType": "string",
          "name": "message",
          "type": "string"
        }
      ],
      "name": "Tipped",
      "type": "event"
    },
    {
      "anonymous": false,
      "inputs": [
        {
          "indexed": true,
          "internalType": "address",
          "name": "creator",
          "type": "address"
        },
        {
          "indexed": false,
          "internalType": "uint256",
          "name": "amount",
          "type": "uint256"
        }
      ],
      "name": "Withdrawn",
      "type": "event"
    },
    {
      "inputs": [
        {
          "internalType": "address",
          "name": "",
          "type": "address"
        }
      ],
      "name": "balances",
      "outputs": [
        {
          "internalType": "uint256",
          "name": "",
          "type": "uint256"
        }
      ],
      "stateMutability": "view",
      "type": "function"
    },
    {
      "inputs": [],
      "name": "creatorRegistrationFee",
      "outputs": [
        {
          "internalType": "uint256",
          "name": "",
          "type": "uint256"
        }
      ],
      "stateMutability": "view",
      "type": "function"
    },
    {
      "inputs": [
        {
          "internalType": "address",
          "name": "creator",
          "type": "address"
        }
      ],
      "name": "getBalance",
      "outputs": [
        {
          "internalType": "uint256",
          "name": "",
          "type": "uint256"
        }
      ],
      "stateMutability": "view",
      "type": "function"
    },
    {
      "inputs": [
        {
          "internalType": "address",
          "name": "user",
          "type": "address"
        }
      ],
      "name": "getEligibilityLevel",
      "outputs": [
        {
          "internalType": "string",
          "name": "",
          "type": "string"
        }
      ],
      "stateMutability": "view",
      "type": "function"
    },
    {
      "inputs": [],
      "name": "idrxToken",
      "outputs": [
        {
          "internalType": "contract IERC20",
          "name": "",
          "type": "address"
        }
      ],
      "stateMutability": "view",
      "type": "function"
    },
    {
      "inputs": [],
      "name": "idrxTokenBalance",
      "outputs": [
        {
          "internalType": "uint256",
          "name": "",
          "type": "uint256"
        }
      ],
      "stateMutability": "view",
      "type": "function"
    },
    {
      "inputs": [
        {
          "internalType": "address",
          "name": "",
          "type": "address"
        }
      ],
      "name": "isCreator",
      "outputs": [
        {
          "internalType": "bool",
          "name": "",
          "type": "bool"
        }
      ],
      "stateMutability": "view",
      "type": "function"
    },
    {
      "inputs": [],
      "name": "owner",
      "outputs": [
        {
          "internalType": "address",
          "name": "",
          "type": "address"
        }
      ],
      "stateMutability": "view",
      "type": "function"
    },
    {
      "inputs": [],
      "name": "registerAsCreator",
      "outputs": [],
      "stateMutability": "nonpayable",
      "type": "function"
    },
    {
      "inputs": [
        {
          "internalType": "uint256",
          "name": "newFee",
          "type": "uint256"
        }
      ],
      "name": "setCreatorRegistrationFee",
      "outputs": [],
      "stateMutability": "nonpayable",
      "type": "function"
    },
    {
      "inputs": [
        {
          "internalType": "address",
          "name": "to",
          "type": "address"
        },
        {
          "internalType": "uint256",
          "name": "amount",
          "type": "uint256"
        },
        {
          "internalType": "string",
          "name": "message",
          "type": "string"
        }
      ],
      "name": "tip",
      "outputs": [],
      "stateMutability": "nonpayable",
      "type": "function"
    },
    {
      "inputs": [],
      "name": "totalRegistrationFees",
      "outputs": [
        {
          "internalType": "uint256",
          "name": "",
          "type": "uint256"
        }
      ],
      "stateMutability": "view",
      "type": "function"
    },
    {
      "inputs": [
        {
          "internalType": "address",
          "name": "",
          "type": "address"
        }
      ],
      "name": "totalTipped",
      "outputs": [
        {
          "internalType": "uint256",
          "name": "",
          "type": "uint256"
        }
      ],
      "stateMutability": "view",
      "type": "function"
    },
    {
      "inputs": [],
      "name": "withdraw",
      "outputs": [],
      "stateMutability": "nonpayable",
      "type": "function"
    },
    {
      "inputs": [
        {
          "internalType": "address",
          "name": "to",
          "type": "address"
        }
      ],
      "name": "withdrawFees",
      "outputs": [],
      "stateMutability": "nonpayable",
      "type": "function"
    }
  ],
  "bytecode": "0x6080604052643a3529440060025534801561001957600080fd5b50604051611be3380380611be3833981810160405281019061003b9190610125565b336000806101000a81548173ffffffffffffffffffffffffffffffffffffffff021916908373ffffffffffffffffffffffffffffffffffffffff16021790555080600160006101000a81548173ffffffffffffffffffffffffffffffffffffffff021916908373ffffffffffffffffffffffffffffffffffffffff16021790555050610152565b600080fd5b600073ffffffffffffffffffffffffffffffffffffffff82169050919050565b60006100f2826100c7565b9050919050565b610102816100e7565b811461010d57600080fd5b50565b60008151905061011f816100f9565b92915050565b60006020828403121561013b5761013a6100c2565b5b600061014984828501610110565b91505092915050565b611a82806101616000396000f3fe608060405234801561001057600080fd5b50600436106100f55760003560e01c80638da5cb5b11610097578063e9173c5111610066578063e9173c511461023a578063efd460651461026a578063f02a6fb41461029a578063f8b2cb4f146102b8576100f5565b80638da5cb5b146101c4578063b008c34e146101e2578063c47f60af146101fe578063d6bc7c631461021c576100f5565b806327e235e3116100d357806327e235e3146101505780633ccfd60b146101805780637a454fbd1461018a5780638732abd5146101ba576100f5565b806306071c64146100fa5780630fdf40f014610118578063164e68de14610134575b600080fd5b6101026102e8565b60405161010f91906110da565b60405180910390f35b610132600480360381019061012d919061112b565b6102ee565b005b61014e600480360381019061014991906111b6565b6103bd565b005b61016a600480360381019061016591906111b6565b610645565b60405161017791906110da565b60405180910390f35b61018861065d565b005b6101a4600480360381019061019f91906111b6565b6108eb565b6040516101b19190611273565b60405180910390f35b6101c2610a4e565b005b6101cc610c7c565b6040516101d991906112a4565b60405180910390f35b6101fc60048036038101906101f79190611324565b610ca0565b005b610206610f71565b60405161021391906110da565b60405180910390f35b610224610f77565b60405161023191906113f7565b60405180910390f35b610254600480360381019061024f91906111b6565b610f9d565b60405161026191906110da565b60405180910390f35b610284600480360381019061027f91906111b6565b610fb5565b604051610291919061142d565b60405180910390f35b6102a2610fd5565b6040516102af91906110da565b60405180910390f35b6102d260048036038101906102cd91906111b6565b611078565b6040516102df91906110da565b60405180910390f35b60025481565b60008054906101000a900473ffffffffffffffffffffffffffffffffffffffff1673ffffffffffffffffffffffffffffffffffffffff163373ffffffffffffffffffffffffffffffffffffffff161461037c576040517f08c379a000000000000000000000000000000000000000000000000000000000815260040161037390611494565b60405180910390fd5b806002819055507f3078ff88b773a184da37e4ac25979ae8829ee49e70657778a47fbd4ae96707f0816040516103b291906110da565b60405180910390a150565b60008054906101000a900473ffffffffffffffffffffffffffffffffffffffff1673ffffffffffffffffffffffffffffffffffffffff163373ffffffffffffffffffffffffffffffffffffffff161461044b576040517f08c379a000000000000000000000000000000000000000000000000000000000815260040161044290611494565b60405180910390fd5b600073ffffffffffffffffffffffffffffffffffffffff168173ffffffffffffffffffffffffffffffffffffffff16036104ba576040517f08c379a00000000000000000000000000000000000000000000000000000000081526004016104b190611500565b60405180910390fd5b6000600354116104ff576040517f08c379a00000000000000000000000000000000000000000000000000000000081526004016104f69061156c565b60405180910390fd5b6000600354905060006003819055506000600160009054906101000a900473ffffffffffffffffffffffffffffffffffffffff1673ffffffffffffffffffffffffffffffffffffffff1663a9059cbb84846040518363ffffffff1660e01b815260040161056d92919061158c565b6020604051808303816000875af115801561058c573d6000803e3d6000fd5b505050506040513d601f19601f820116820180604052508101906105b091906115e1565b9050806105f2576040517f08c379a00000000000000000000000000000000000000000000000000000000081526004016105e99061165a565b60405180910390fd5b8273ffffffffffffffffffffffffffffffffffffffff167f78473f3f373f7673597f4f0fa5873cb4d375fea6d4339ad6b56dbd411513cb3f8360405161063891906110da565b60405180910390a2505050565b60056020528060005260406000206000915090505481565b600460003373ffffffffffffffffffffffffffffffffffffffff1673ffffffffffffffffffffffffffffffffffffffff16815260200190815260200160002060009054906101000a900460ff166106e9576040517f08c379a00000000000000000000000000000000000000000000000000000000081526004016106e0906116c6565b60405180910390fd5b6000600560003373ffffffffffffffffffffffffffffffffffffffff1673ffffffffffffffffffffffffffffffffffffffff16815260200190815260200160002054905060008111610770576040517f08c379a000000000000000000000000000000000000000000000000000000000815260040161076790611732565b60405180910390fd5b6000600560003373ffffffffffffffffffffffffffffffffffffffff1673ffffffffffffffffffffffffffffffffffffffff168152602001908152602001600020819055506000600160009054906101000a900473ffffffffffffffffffffffffffffffffffffffff1673ffffffffffffffffffffffffffffffffffffffff1663a9059cbb33846040518363ffffffff1660e01b815260040161081492919061158c565b6020604051808303816000875af1158015610833573d6000803e3d6000fd5b505050506040513d601f19601f8201168201806040525081019061085791906115e1565b905080610899576040517f08c379a00000000000000000000000000000000000000000000000000000000081526004016108909061165a565b60405180910390fd5b3373ffffffffffffffffffffffffffffffffffffffff167f7084f5476618d8e60b11ef0d7d3f06914655adb8793e28ff7f018d4c76d505d5836040516108df91906110da565b60405180910390a25050565b60606000600660008473ffffffffffffffffffffffffffffffffffffffff1673ffffffffffffffffffffffffffffffffffffffff16815260200190815260200160002054905064e8d4a51000811061097b576040518060400160405280600481526020017f676f6c6400000000000000000000000000000000000000000000000000000000815250915050610a49565b64746a52880081106109c5576040518060400160405280600681526020017f73696c7665720000000000000000000000000000000000000000000000000000815250915050610a49565b64174876e8008110610a0f576040518060400160405280600681526020017f62726f6e7a650000000000000000000000000000000000000000000000000000815250915050610a49565b6040518060400160405280600481526020017f6e6f6e65000000000000000000000000000000000000000000000000000000008152509150505b919050565b600460003373ffffffffffffffffffffffffffffffffffffffff1673ffffffffffffffffffffffffffffffffffffffff16815260200190815260200160002060009054906101000a900460ff1615610adb576040517f08c379a0000000000000000000000000000000000000000000000000000000008152600401610ad29061179e565b60405180910390fd5b6000600160009054906101000a900473ffffffffffffffffffffffffffffffffffffffff1673ffffffffffffffffffffffffffffffffffffffff166323b872dd33306002546040518463ffffffff1660e01b8152600401610b3e939291906117be565b6020604051808303816000875af1158015610b5d573d6000803e3d6000fd5b505050506040513d601f19601f82011682018060405250810190610b8191906115e1565b905080610bc3576040517f08c379a0000000000000000000000000000000000000000000000000000000008152600401610bba90611841565b60405180910390fd5b60025460036000828254610bd79190611890565b925050819055506001600460003373ffffffffffffffffffffffffffffffffffffffff1673ffffffffffffffffffffffffffffffffffffffff16815260200190815260200160002060006101000a81548160ff0219169083151502179055503373ffffffffffffffffffffffffffffffffffffffff167f177b4e655e9aaf45f5db25b396dfba96e0152f6adcf5d9a3e7d07276431d42e760405160405180910390a250565b60008054906101000a900473ffffffffffffffffffffffffffffffffffffffff1681565b600460008573ffffffffffffffffffffffffffffffffffffffff1673ffffffffffffffffffffffffffffffffffffffff16815260200190815260200160002060009054906101000a900460ff16610d2c576040517f08c379a0000000000000000000000000000000000000000000000000000000008152600401610d2390611910565b60405180910390fd5b60008311610d6f576040517f08c379a0000000000000000000000000000000000000000000000000000000008152600401610d669061197c565b60405180910390fd5b6000600160009054906101000a900473ffffffffffffffffffffffffffffffffffffffff1673ffffffffffffffffffffffffffffffffffffffff166323b872dd3330876040518463ffffffff1660e01b8152600401610dd0939291906117be565b6020604051808303816000875af1158015610def573d6000803e3d6000fd5b505050506040513d601f19601f82011682018060405250810190610e1391906115e1565b905080610e55576040517f08c379a0000000000000000000000000000000000000000000000000000000008152600401610e4c90611841565b60405180910390fd5b83600560008773ffffffffffffffffffffffffffffffffffffffff1673ffffffffffffffffffffffffffffffffffffffff1681526020019081526020016000206000828254610ea49190611890565b9250508190555083600660003373ffffffffffffffffffffffffffffffffffffffff1673ffffffffffffffffffffffffffffffffffffffff1681526020019081526020016000206000828254610efa9190611890565b925050819055508473ffffffffffffffffffffffffffffffffffffffff163373ffffffffffffffffffffffffffffffffffffffff167fa374111400afcb6aa53953dbd1fcea44c820a4aa80aafd21c08479fb25a84698868686604051610f62939291906119d8565b60405180910390a35050505050565b60035481565b600160009054906101000a900473ffffffffffffffffffffffffffffffffffffffff1681565b60066020528060005260406000206000915090505481565b60046020528060005260406000206000915054906101000a900460ff1681565b6000600160009054906101000a900473ffffffffffffffffffffffffffffffffffffffff1673ffffffffffffffffffffffffffffffffffffffff166370a08231306040518263ffffffff1660e01b815260040161103291906112a4565b602060405180830381865afa15801561104f573d6000803e3d6000fd5b505050506040513d601f19601f820116820180604052508101906110739190611a1f565b905090565b6000600560008373ffffffffffffffffffffffffffffffffffffffff1673ffffffffffffffffffffffffffffffffffffffff168152602001908152602001600020549050919050565b6000819050919050565b6110d4816110c1565b82525050565b60006020820190506110ef60008301846110cb565b92915050565b600080fd5b600080fd5b611108816110c1565b811461111357600080fd5b50565b600081359050611125816110ff565b92915050565b600060208284031215611141576111406110f5565b5b600061114f84828501611116565b91505092915050565b600073ffffffffffffffffffffffffffffffffffffffff82169050919050565b600061118382611158565b9050919050565b61119381611178565b811461119e57600080fd5b50565b6000813590506111b08161118a565b92915050565b6000602082840312156111cc576111cb6110f5565b5b60006111da848285016111a1565b91505092915050565b600081519050919050565b600082825260208201905092915050565b60005b8381101561121d578082015181840152602081019050611202565b60008484015250505050565b6000601f19601f8301169050919050565b6000611245826111e3565b61124f81856111ee565b935061125f8185602086016111ff565b61126881611229565b840191505092915050565b6000602082019050818103600083015261128d818461123a565b905092915050565b61129e81611178565b82525050565b60006020820190506112b96000830184611295565b92915050565b600080fd5b600080fd5b600080fd5b60008083601f8401126112e4576112e36112bf565b5b8235905067ffffffffffffffff811115611301576113006112c4565b5b60208301915083600182028301111561131d5761131c6112c9565b5b9250929050565b6000806000806060858703121561133e5761133d6110f5565b5b600061134c878288016111a1565b945050602061135d87828801611116565b935050604085013567ffffffffffffffff81111561137e5761137d6110fa565b5b61138a878288016112ce565b925092505092959194509250565b6000819050919050565b60006113bd6113b86113b384611158565b611398565b611158565b9050919050565b60006113cf826113a2565b9050919050565b60006113e1826113c4565b9050919050565b6113f1816113d6565b82525050565b600060208201905061140c60008301846113e8565b92915050565b60008115159050919050565b61142781611412565b82525050565b6000602082019050611442600083018461141e565b92915050565b7f4e6f7420617574686f72697a6564000000000000000000000000000000000000600082015250565b600061147e600e836111ee565b915061148982611448565b602082019050919050565b600060208201905081810360008301526114ad81611471565b9050919050565b7f496e76616c696420616464726573730000000000000000000000000000000000600082015250565b60006114ea600f836111ee565b91506114f5826114b4565b602082019050919050565b60006020820190508181036000830152611519816114dd565b9050919050565b7f4e6f206665657320746f20776974686472617700000000000000000000000000600082015250565b60006115566013836111ee565b915061156182611520565b602082019050919050565b6000602082019050818103600083015261158581611549565b9050919050565b60006040820190506115a16000830185611295565b6115ae60208301846110cb565b9392505050565b6115be81611412565b81146115c957600080fd5b50565b6000815190506115db816115b5565b92915050565b6000602082840312156115f7576115f66110f5565b5b6000611605848285016115cc565b91505092915050565b7f5769746864726177206661696c65640000000000000000000000000000000000600082015250565b6000611644600f836111ee565b915061164f8261160e565b602082019050919050565b6000602082019050818103600083015261167381611637565b9050919050565b7f4e6f7420612063726561746f7200000000000000000000000000000000000000600082015250565b60006116b0600d836111ee565b91506116bb8261167a565b602082019050919050565b600060208201905081810360008301526116df816116a3565b9050919050565b7f4e6f2062616c616e636500000000000000000000000000000000000000000000600082015250565b600061171c600a836111ee565b9150611727826116e6565b602082019050919050565b6000602082019050818103600083015261174b8161170f565b9050919050565b7f416c726561647920612063726561746f72000000000000000000000000000000600082015250565b60006117886011836111ee565b915061179382611752565b602082019050919050565b600060208201905081810360008301526117b78161177b565b9050919050565b60006060820190506117d36000830186611295565b6117e06020830185611295565b6117ed60408301846110cb565b949350505050565b7f5472616e73666572206661696c65640000000000000000000000000000000000600082015250565b600061182b600f836111ee565b9150611836826117f5565b602082019050919050565b6000602082019050818103600083015261185a8161181e565b9050919050565b7f4e487b7100000000000000000000000000000000000000000000000000000000600052601160045260246000fd5b600061189b826110c1565b91506118a6836110c1565b92508282019050808211156118be576118bd611861565b5b92915050565b7f526563697069656e74206e6f7420612063726561746f72000000000000000000600082015250565b60006118fa6017836111ee565b9150611905826118c4565b602082019050919050565b60006020820190508181036000830152611929816118ed565b9050919050565b7f416d6f756e74206d757374206265203e20300000000000000000000000000000600082015250565b60006119666012836111ee565b915061197182611930565b602082019050919050565b6000602082019050818103600083015261199581611959565b9050919050565b82818337600083830152505050565b60006119b783856111ee565b93506119c483858461199c565b6119cd83611229565b840190509392505050565b60006040820190506119ed60008301866110cb565b8181036020830152611a008184866119ab565b9050949350505050565b600081519050611a19816110ff565b92915050565b600060208284031215611a3557611a346110f5565b5b6000611a4384828501611a0a565b9150509291505056fea2646970667358221220953391053cd9c3947bd727a5183f9d356a444d25476adaba958de2bf7f8cd27a64736f6c634300081c0033",
  "linkReferences": {},
  "deployedLinkReferences": {}
}